:020000040800F2
:10000000B004002045010008131B0008631A000813
:10001000111B00088D080008DD1D0008000000000D
:10002000000000000000000000000000371B000876
:100030008F08000800000000351B0008391B00086D
:100040005F0100085F0100085F0100085F01000810
:100050005F0100085F0100085F0100085F01000800
:100060005F0100085F0100085F0100085F010008F0
:100070005F0100085F0100085F0100085F010008E0
:100080005F0100085F010008C50700085F01000864
:100090005F0100085F0100085F0100085F010008C0
:1000A0005F0100085F0100085F0100085F010008B0
:1000B0005F0100085F0100085F0100085F010008A0
:1000C0005F0100085F0100085F0100085F01000890
:1000D0005F0100085F0100085F0100085F01000880
:1000E0005F0100085F0100085F0100085F01000870
:1000F0005F0100085F0100085F0100085F01000860
:100100005F0100085F0100085F0100085F0100084F
:100110005F0100085F0100085F0100085F0100083F
:100120005F0100085F0100085F0100085F0100082F
:10013000DFF80CD000F012FB00480047F926000859
:10014000B00400200648804706480047FEE7FEE767
:10015000FEE7FEE7FEE7FEE7FEE7FEE7FEE7FEE777
:10016000C11B000831010008202A04DB203A21FAD3
:1001700002F00021704721FA02F3D040C2F12002C0
:1001800091400843194670472DE9FE4F81EA030468
:1001900004F0004421F0004100944FF0000B23F0E4
:1001A000004350EA01045ED052EA03045BD0C3F37B
:1001B0000A54C1F30A552C44A4F2F3340194A0FB71
:1001C0000254C1F3130141F48011C3F3130343F448
:1001D000801301FB024400FB034E840A970A44EAA1
:1001E000815447EA8357A4FB076802958D0A05FBF3
:1001F00007854FEA932C04FB0C542705029D4FEA18
:10020000065847EA1637B5EB08056EEB070C870E64
:10021000920E47EA811742EA8312A7FB0201B6EB6E
:100220000B0164EB00042B0D43EA0C335E1844EB26
:100230001C50DA465146E7FB0201C5F313044FEAAE
:100240000B3343EA14534FEA0432019C43EA06039A
:10025000A4F10C040294009CCDE900B400F0EAF88B
:1002600003B0BDE8F08F00200146F9E770B521F03A
:10027000004303430CD0C1F30A550024D5EB040519
:1002800064EB0403D617AD1AB34102DB002001462C
:1002900070BD201841EB025170BD0EB5C10F80EA50
:1002A000E0700844CA07002140F233438DE80E0095
:1002B0000A460B4600F0BEF803B000BD00F0004255
:1002C00030F000400AD0C10D01F56071C0F3160096
:1002D00042EA0151C208400711437047002001461D
:1002E000704701F0004330B421F0004150EA0102B0
:1002F00006D00A0DA2F56072C1F31301002A02DCD8
:1003000030BC00207047440F44EAC104C100E0182B
:1003100030BC00EBC25000F047B830B50B46014688
:1003200000202022012409E021FA02F59D4205D394
:1003300003FA02F5491B04FA02F52844151EA2F13E
:100340000102F1DC30BD2DE9F05F05460020924648
:100350009B4688460646814640241BE02846414687
:1003600047462246FFF700FF53465A46C01A9141BE
:1003700010D311461846224600F002FA2D1A67EBF8
:1003800001084F4622460120002100F0F9F917EB41
:1003900000094E41201EA4F10104DFDC484631462D
:1003A0002A464346BDE8F09F0029A8BF7047401C7D
:1003B000490008BF20F00100704710B4B0FA80FC7B
:1003C00000FA0CF050EA010404BF10BC704749B1B8
:1003D000CCF1200421FA04F411FA0CF118BF012128
:1003E00021430843A3EB0C01CB1D4FEA00614FEA08
:1003F000102042BF002010BC704700EBC3501044D7
:100400000029A4BF10BC7047401C490008BF20F061
:10041000010010BC704710B5141E73F1000408DA17
:10042000401C41F1000192185B411A4301D120F0B8
:10043000010010BD2DE9F04D92469B4611B1B1FA75
:1004400081F202E0B0FA80F22032904600F098F992
:1004500004460F4640EA0A0041EA0B0153465A4659
:10046000084313D0114653EA010019D0C8F14002E5
:100470005046FFF779FE05460E465046594642461D
:1004800000F07EF9084305D0012004E020463946FB
:10049000BDE8F08D0020054346EAE0762C43374363
:1004A0000A986305E40AA0EB08000022FD0A44EA6A
:1004B00047540A3002D500200146E9E7010510192A
:1004C0006941DDE9084500196941BDE8F04DA2E741
:1004D0002DE9FE4F804681EA0300C00F0C460090D4
:1004E00021F0004123F00045B8EB0200A94105D2FC
:1004F0004046214690461C460B46024623F00040EB
:10050000104347D0270DC7F30A00C3F30A510290E6
:10051000401A019040286BDAC3F3130040F4801BAB
:100520000098924620B10023D2EB030A63EB0B0B39
:1005300001985946C0F14002504600F021F90646A4
:100540000D4650465946019A00F029F910EB080073
:100550006141002487EA115284EAE7731A4340D0CC
:10056000009A62B3019A012A4FEA075215DC001B78
:1005700061EB02014FF0004202EA0752CDE900426E
:10058000001C41F5801132462B46FFF753FF03B0A4
:10059000BDE8F08F40462146F9E7001B61EB020100
:1005A000001C41F5801300185B412018A2F50017CC
:1005B00047EB030140EAD570B6196D4111E06D08B3
:1005C0004FEA360645EAC0754FEA0752001B61EB59
:1005D0000201001C41F5801149084FEA3000001962
:1005E000514132462B4603B0BDE8F04FFFF713BF31
:1005F0000098012240000023D0EB020263EBE0737D
:10060000009821464FEAE074B8EB000061EB04016A
:10061000E9E783F000435BE781F0004158E72DE90B
:10062000F04D81EA030404F0004B21F0004514462C
:100630004FF0000A23F0004150EA050220D054EAAE
:1006400001021DD0C5F30A570246C5F31303C1F3D7
:100650001300C1F30A5640F4801543F48013A7EB4E
:100660000608101BD64608F2FD3873EB050002D3CE
:1006700008F1010801E092185B41B8F1000F03DABC
:1006800000200146BDE8F08D00204FF480110646A1
:1006900084460EE0171B73EB050705D3121B63EBB3
:1006A000050306434CEA010C49084FEA3000921852
:1006B0005B4150EA0107EDD152EA030012D082EA11
:1006C000040083EA0501084305D0101BAB4106D2A4
:1006D0000122002306E000224FF0004302E06FF009
:1006E000010253101AEB06004CEB085110EB0A0004
:1006F00041EB0B01BDE8F04DFFF78DBEC1F30A528F
:10070000C1F3130140F2FF3341F480119A4202DA3F
:1007100000200146704740F233439A42A2F233422E
:1007200002DC5242FFF720BD00F02AB830B5041EAB
:1007300071F1000404DB4FF00044404264EB01011E
:10074000141E73F1000405DB1C464FF000435242B7
:1007500063EB0403994208BF904230BD064C074D3D
:1007600006E0E06840F0010394E807009847103481
:10077000AC42F6D3FFF7E0FC6027000880270008B2
:10078000202A04DB203A00FA02F100207047914051
:10079000C2F1200320FA03F3194390407047202A46
:1007A00006DBCB17203A41FA02F043EAE07306E099
:1007B00041FA02F3D040C2F12002914008431946A9
:1007C00070470000014800F0A0B90000240000209C
:1007D00070B5044600688168C943C9071CD18168A7
:1007E00021F00101816000F02FFC05460FE000BF01
:1007F00000F02AFC401B022809D9A06A40F0100032
:10080000A062E06A40F00100E062012070BD206853
:100810008068C043C007EBD0002070BDF8B500264B
:100820000446009600688168C943C90728D08168DA
:1008300041F001018160134813490068B0FBF1F0F9
:1008400000E0401E00900028FBD100F0FDFB0546B3
:1008500011E000BF00F0F8FB401B02280BD9A06A92
:1008600040F01000A062E06A40F00100E06284F80D
:1008700024600120F8BD20688068C043C007E9D12A
:100880000020F8BD1800002040420F00FEE770472E
:10089000F8B500250446009590F82400012808D0FA
:1008A000012084F824002046FFF792FF060002D0C2
:1008B0004BE00220F8BDA06A20F4885040F002000E
:1008C000A062022000F086FC22490968B1FBF0F02A
:1008D000400000E0401E00900028FBD12046FFF7BA
:1008E0009DFF2068816841F00801816000F0ACFB49
:1008F000074604E000F0A8FBC01B0A2811D82068B6
:1009000080680007F6D42068816841F004018160A6
:1009100000F09AFB07460EE000F096FBC01B0A2889
:1009200009D9A06A20F0020040F01000A06284F80B
:1009300024500120F8BD206880684007ECD4A06AEC
:1009400020F0020040F00100A06284F824503046FC
:10095000F8BD00001800002070470000F8B5002422
:10096000009490F824202546012A12D0012280F814
:1009700024204A681F23072A0DD20668776B521E6F
:1009800002EB820293409F430B6893401F437763BF
:1009900019E00220F8BD06680D2A0AD2376BD21F73
:1009A00002EB820293409F430B6893401F433763DF
:1009B00009E0F76A0D3A02EB820293409F430B680D
:1009C00093401F43F7620A68072306680A2A0AD37E
:1009D000F7680A3A02EB420293409F438B689340C8
:1009E0001F43F76008E0376902EB420293409F43E0
:1009F0008B6893401F4337610A68102A01D0112A7F
:100A000020D1124B02689A4217D193681B0219D465
:100A1000936843F4000393600968102912D10C49CC
:100A20000C4A0968B1FBF2F101EB8101490000E0D9
:100A3000491E00910029FBD104E0816A41F02001A8
:100A40008162012480F824502046F8BD0024014032
:100A50001800002040420F0070B5234800F082F9D2
:100A6000224CA068401CA0601F4800F04BF81E4BB1
:100A7000A16870330D2923F811002288104486B232
:100A8000268030D119885FF00002084633F81250F2
:100A90008D4200D32946854200D82846521CD2B246
:100AA0000E2AF3D3711A081A0C2190FBF1F0FFF70C
:100AB000F4FB0F4A0F4BFFF767FB6FF00B02FFF7DA
:100AC000D5FBFFF70EFC6060FFF7F8FB02460B4614
:100AD00009A001F085F94FF47A7000F0A9F900201F
:100AE0002080401EA06070BD240000200000002077
:100AF0001F85EB51B81E0B404144203D20252E346C
:100B0000660D0A000068C06C704710B504460068A6
:100B10004168890626D50168890723D5A16AC906D7
:100B200003D4A16A41F40071A1628168C1F342411A
:100B3000072910D1E16871B9416821F020014160B5
:100B4000A06A20F48070A062A06AC00403D4A06AE6
:100B500040F00100A0622046FFF77EFF21686FF0A1
:100B6000120008602068416809062ED5016849070F
:100B70002BD5A16AC90603D4A16A41F40051A16230
:100B80008168C1F30231072909D04168490515D4AC
:100B90008168C1F34241072910D1E16871B9416808
:100BA00021F080014160A06A20F48050A062A06A18
:100BB000C00503D4A06A40F00100A0622046FFF700
:100BC000CBFE21686FF00C00086020684168490680
:100BD0000DD50068C0070AD0A06A40F48030A0623A
:100BE000204600F095F821686FF00100086010BD04
:100BF0002DE9F04104004FF000057FD0A06A0026E7
:100C000028B9E66284F82460204600F083F8204684
:100C1000FFF7DEFDA16AC90600D420B1A06A40F04A
:100C20001000A0626AE0A16A21F4885141F002013B
:100C3000A162334923688B42E16904D1B1F5402FA9
:100C400001D14FF40021E7684FF4807C41EA47026C
:100C500061680A43A168614508D0012906D00021D6
:100C6000D4F814E0BEF1010F02D00AE06146F7E7C4
:100C7000C7B1A76A47F02007A762E76A47F00107F4
:100C8000E7625F6827F469470F435F6023689968EC
:100C90001C4F394011439960A16861450BD001296F
:100CA00009D00CE0DFF860E0A7690EEB47370F438F
:100CB00047F40061E5E7218A0D05A5F58015216857
:100CC000CB6A23F470032B43CB62216889680F4BF6
:100CD0001940914208D1E662A16A21F0020141F077
:100CE0000101A162BDE8F081A06A20F0020040F09D
:100CF0001000A062E06A40F00100E0620120F1E72C
:100D0000003C0140FDF7E1FF00E0FFFFFE0E1FFF8A
:100D10007047000000B500680F4985B0884218D1BF
:100D20000E48816941F4007181618069694600F46F
:100D3000007004900120009003200190084800F00A
:100D400089F800220121122000F012FA122000F08E
:100D500003FA05B000BD000000240140001002406D
:100D60000010014070B5044690F8240001280DD011
:100D7000012084F824002046FFF750FD02004FF0C8
:100D8000000005D084F82400104670BD022070BD1C
:100D9000A16A40F60163994341F48071A162224D3A
:100DA00023682249AB4218D10E6816F4702F14D074
:100DB000A66A46F48016A6620E68760505D5A66A70
:100DC00026F4005646F48056A662A66AF6040AD5B2
:100DD000E66A26F00606E66206E0A66A26F48016B3
:100DE000A6625E68E9E7E06284F824006FF0020022
:100DF00018602068436843F02003436020688368DC
:100E0000C3F34243072B05D1A84208D1096811F466
:100E1000702F04D0816841F480118160B4E781684B
:100E200041F4A001F9E7000000280140042401403A
:100E300070B5044600F008F90546601C02D004486D
:100E40000078044400F000F9401BA042FAD370BDC2
:100E50000C0000202DE9F84FDFF8B8A100220AF1BC
:100E6000040B144601274FF00F090BF1040E00BFCD
:100E70000B6807FA04F52B40AB4274D1DFF898C138
:100E80004E68A6EB0C0866452BD00DDC032E34D043
:100E900005DC36B3012E19D0022E2FD11BE0112E06
:100EA00016D0122E2AD119E0B8F5881F19D006DC09
:100EB000B8F5803F15D0B8F5801F1FD111E0B8F507
:100EC000001F0ED0B8F5041F18D10AE0CA6815E05B
:100ED000CA68121D12E0CA6808320FE0CA680C32F4
:100EE0000CE08A682AB1012A4FF0080203D045615C
:100EF00004E0042202E0056100E00022FF2B01D89B
:100F0000064601E000F104064FEA840501D9A5F187
:100F10002005D6F800C009FA05F82CEA080C02FAF8
:100F200005F54CEA050CC6F800C04D68ED006AD521
:100F30003A4DAE6946F00106AE61AD6924F0030694
:100F400005F001050095364D06EB050CDCF8085060
:100F5000A6074FEA167809FA08F6B543314EB042B3
:100F600002D100261AE04EE02F4EB04201D10126F8
:100F700014E02E4EB04201D102260FE02C4EB042BA
:100F800001D103260AE02B4EB04201D1042605E030
:100F9000294EB04201D1052600E0062606FA08F6E1
:100FA0002E43CCF808604D68DAF80060ED03554632
:100FB00001D51E4300E09E432E604D68AD0305D56C
:100FC000DBF800601E43CBF8006004E0DBF8005063
:100FD0009D43CBF800504D68DEF80060ED02754689
:100FE00001D51E4300E09E432E604D68AD0205D53D
:100FF000084D0C352E681E432E6004E0054E0C365D
:1010000035689D433560641C102CFFF431AFBDE89A
:10101000F88F000000040140000011100010024091
:101020000000014000080140000C01400010014098
:101030000014014000180140001C01400AB1016188
:1010400070470904FBE70000014880687047000012
:101050000C000020024881680278114481607047CA
:101060000C000020074810B5016841F01001016034
:10107000032000F09DF8002000F006F800F024F8AE
:10108000002010BD0020024070B50D4D04464FF405
:101090007A712878B1FBF0F00A490968B1FBF0F0E9
:1010A00000F00DFC48B9102C07D200222146501E3A
:1010B00000F05EF800206C6070BD012070BD000083
:1010C0000C00002018000020214808B5816941F07B
:1010D00001018161816901F001010091C16941F063
:1010E0008051C161C06900F080500090052000F07F
:1010F0005FF8002211466FF00B0000F039F8002273
:1011000011466FF00A0000F033F8002211466FF02C
:10111000090000F02DF800221146501F00F028F8B9
:1011200000221146101F00F023F800221146901EE5
:1011300000F01EF800221146501E00F019F8054874
:10114000416821F0E06141F00071416008BD00009C
:10115000001002400000014000F01F0201219140F8
:101160004009800000F1E020C0F800117047000045
:10117000F0B40E4B1B680C46C3F30223C3F1070502
:10118000042D00D90425191D072901D2002300E0F0
:10119000DB1E012606FA05F1491E214099409E40BA
:1011A000761E16403143F0BC00F0B4BC0CED00E0FC
:1011B000064900F0070208684FF6FF03184040EAAE
:1011C0000220034A10430860704700000CED00E065
:1011D0000000FA0510B52CA401461DCC86B08DE8A0
:1011E0001D002DA02D4C00680490002004292FD054
:1011F0000BDC01292FD0022928D100F08BF961687E
:10120000C1F38131491C49001EE0082920D0102972
:101210001CD161682268D20118D5C1F38342C90389
:101220001DF8020009D5616804AAC1F34041515C70
:101230001B4AB2FBF1F1484301E01A494843616897
:10124000490203D440000321B0FBF1F006B010BD09
:1012500000F070F9FAE7226AC2F30121012903D1F3
:10126000920701D5C803F1E7022905D1626A920706
:1012700002D549F64040E9E70329E7D1216889030F
:10128000E4D54FF22440E1E702030405060708090C
:101290000A0B0C0D0E0F101001020000001002408E
:1012A00000127A0000093D002DE9F8430546007858
:1012B000354CC00754D0E0690026C00008D4E0696E
:1012C00040F08050E061E069012600F0805000901D
:1012D0002E480168C90512D40168804641F4807126
:1012E0000160FFF7B1FE074605E000BFFFF7ACFE67
:1012F000C01B642823D8D8F80000C005F6D5206AA2
:1013000010F4407021D0A98801F4407181421CD0B2
:10131000206A1F49012220F440700A6000220A60FE
:101320002062C00711D0FFF78FFE074641F28838D0
:1013300008E000BFFFF788FEC11B414502D903202A
:10134000BDE8F883206A8007F4D5206A696820F434
:101350004070084320621EB1E06920F08050E061D7
:101360002878800705D56068A96820F440400843C4
:1013700060602878C00605D56068696920F480003F
:10138000084360600020DBE700100240007000406E
:10139000400442422DE9F047DFF83C8105460E4605
:1013A000D8F8000000F00700B0420CD2D8F80010C6
:1013B00021F007013143C8F80010D8F8000000F010
:1013C0000700B04263D12878444C800705D5606897
:1013D000A96820F0F000084360602878C00745D075
:1013E0006868012816D02168022816D089070029CC
:1013F0004DDA616821F0030101436160FFF724FECB
:101400006968074641F2883001290FD002298146D8
:1014100019D027E021688903E9E78901E7E700BFE0
:10142000FFF712FEC11B494501D918E081466068EB
:10143000C0F381000128F3D118E000BFFFF704FEDC
:10144000C11B49450BD86068C0F381000228F5D163
:101450000CE000BFFFF7F8FDC11B494502D903208E
:10146000BDE8F087606810F00C0FF3D1D8F80010D9
:10147000404601F00701B1420BD9016821F0070194
:1014800031430160006800F00700B04201D0012044
:10149000E6E72878400705D56068E96820F4E06051
:1014A000084360602878000706D56068296920F441
:1014B000605040EAC100606000F03CF86168084A92
:1014C000C1F30311515CC840064908600020FFF7D2
:1014D000DBFD0020C4E700000020024000100240B5
:1014E00048270008180000200148006870470000E5
:1014F000180000200448054900684968044AC1F3FF
:101500000221515CC84070471800002000100240C2
:10151000582700080448054900684968044AC1F38F
:10152000C221515CC84070471800002000100240E2
:101530005827000812A185B00FC98DE80F0014A02C
:10154000144A006804905168134801F00C03042BFE
:1015500010D0082B0ED1C1F38343C9031DF803003B
:101560000AD5516804AAC1F34041515C0A4A50436C
:10157000B0FBF1F005B0704708494843FAE70000B6
:1015800002030405060708090A0B0C0D0E0F1010C4
:10159000010200000010024000127A0000093D0024
:1015A0002DE9F84F04460078B94DC00748D0686867
:1015B000C0F38100012807D06868C0F381000228C9
:1015C00009D16868C00306D52868800338D56068EB
:1015D00000286FD034E06068B0F5803F0BD010B1C8
:1015E000B0F5A02F11D0286820F48030286028683A
:1015F00020F4802002E0286840F480302860606891
:1016000088B1FFF721FD064609E0286840F48020F4
:101610002860F0E7FFF718FD801B642875D828685C
:101620008003F7D50CE0FFF70FFD064605E000BF8D
:10163000FFF70AFD801B6428F0D828688003F7D4E0
:101640002078944E80074FF001094FF000083BD5F9
:10165000686810F00C0F07D06868C0F3810002289A
:1016600009D16868C00306D42868800714D52069AA
:1016700001281FD110E02069B0B1C6F80090FFF733
:10168000E3FC074605E000BFFFF7DEFCC01B0228B5
:10169000C4D828688007F7D52868616920F0F80069
:1016A00040EAC10028600FE0C6F80080FFF7CCFCDC
:1016B000074606E0E9E000BFFFF7C6FCC01B0228B2
:1016C00023D828688007F7D4207800072CD57248E3
:1016D000A169D9B1C0F80090FFF7B6FC074604E055
:1016E000FFF7B2FCC01B02280FD8686A8007F7D545
:1016F0006A484FF4FA510068B0FBF1F0009000BF67
:101700000098411E0091FAD20EE080E0C0F80080FF
:10171000FFF79AFC074604E0FFF796FCC01B02287F
:1017200075D8686A8007F7D42078400760D5E869E3
:101730000027C00008D4E86940F08050E861E869FB
:10174000012700F08050009055480168C90513D466
:101750000168834641F480710160FFF775FC8246A1
:1017600006E000BFFFF770FCA0EB0A0064284ED82B
:10177000DBF80000C005F5D5E06801280AD008B103
:10178000052813D0286A20F001002862286A20F07A
:10179000040002E0286A40F001002862E06841F29B
:1017A000883B98B1FFF750FC82460BE0286A40F076
:1017B00004002862EEE700BFFFF746FCA0EB0A0139
:1017C00059455AD8286A8007F6D50CE0FFF73CFC4B
:1017D000824605E0FFF738FCA0EB0A0159454CD8DA
:1017E000286A8007F6D41FB1E86920F08050E861CC
:1017F000E06988B36968C1F38101022945D00228F4
:10180000C6F8608004D0FFF71FFC044638E034E0DF
:10181000FFF71AFC074604E0FFF716FCC01B02287E
:101820002BD828688001F7D4206AB0F5803F05D115
:101830006868A16820F4003008436860D4E90801B2
:101840000843696821F4741108436860C6F8609021
:10185000FFF7FAFB044606E015E000BFFFF7F4FBD4
:10186000001B022809D828688001F7D50BE000BFCB
:10187000FFF7EAFB001B022802D90320BDE8F88F1E
:1018800028688001F4D40020F8E70120F6E7000082
:101890000010024000004242800442421800002032
:1018A000007000404FF0E0210428086903D020F0C8
:1018B00004000861704740F00400FAE7704710B573
:1018C000401EB0F1807F01D3012010BD4FF0E02415
:1018D00060610F21601700F01DF90020A061072052
:1018E0002061002010BD10B5FFF7E8FF10BD70B5F6
:1018F000040004D094F83900002510B106E001205E
:1019000070BD84F83850204600F022F8242084F876
:1019100039002068C16821F40051C160204600F000
:1019200073F92068016921F49041016120684169DF
:1019300021F02A0141612068C16841F40051C16071
:10194000E563202084F8390084F83A00002070BD57
:1019500010B50068114986B088421CD11048C16991
:1019600041F40031C161C0690E4C00F400300490B4
:101970000420009002200190032003906946204635
:10198000FFF768FA00210820CDE9000102916946BD
:101990002046FFF75FFA06B010BD0000004400408B
:1019A00000100240000801402DE9F843044690F879
:1019B00039001F4616460D46202850D1A5B19EB1CC
:1019C00094F8380001284AD0012084F838004FF0FC
:1019D0000008C4F83C80212084F83900FFF734FB6C
:1019E000A6848146E68426E00120BDE8F883E08CE9
:1019F000401EE084A0684B46B0F5805F4FF00002C7
:101A00004FF080012046009703D000F0B5F9E8B907
:101A10000DE000F0B1F9C8B928882168C0F30800CA
:101A20004860206908B16D1C05E0AD1C03E0216829
:101A300015F8010B4860E08C0028D8D14B460022F5
:101A400040212046009700F097F908B10320CCE729
:101A5000202084F8390084F838800020C5E702206F
:101A6000C3E7FEE73EB510480E490124016000219E
:101A7000C0E9021441614FF460220461C261416017
:101A8000FFF7B6F800B1FEE70A20CDE90004052013
:101A9000029069460448FEF761FF002800D0FEE787
:101AA0003EBD00000024014024000020164810B56F
:101AB000816986B041F080018161816901F0800116
:101AC0000491816941F010018161816901F0100187
:101AD0000491816941F00401816180690B4C00F03F
:101AE00004000490002240212046FFF7A7FA40207E
:101AF000009001200221CDE90101039169462046B1
:101B0000FFF7A8F906B010BD00100240001C01400C
:101B1000FEE770470907090E002806DA00F00F00FB
:101B200000F1E02080F8141D704700F1E02080F8FB
:101B3000001470477047704710B5FFF78BFABDE887
:101B40001040FFF7D0BE30B595B001210804CDE9B3
:101B500000100025029502240491CDE907404FF4BE
:101B6000E01009906846FFF71BFD00B1FEE70AA9E7
:101B70000F2081E831004FF48060CDE90D0502218E
:101B80000AA8FFF707FC00B1FEE74FF400401190F0
:101B90000F940FA8FFF788FB00B1FEE7FFF7A4FC46
:101BA0004FF47A71B0FBF1F0FFF789FE0420FFF7E4
:101BB00079FE00221146501EFFF7DAFA15B030BD4B
:101BC0000D48016841F00101016041680B4A114074
:101BD000416001680A4A11400160016821F48021D6
:101BE0000160416821F4FE0141604FF41F018160F2
:101BF0000449C00308607047001002400000FFF86D
:101C0000FFFFF6FE08ED00E02DE9F0410446006814
:101C10000169E26821F44051114301612169A06822
:101C20000843616908432168CA6841F20C639A431A
:101C30000243CA6020684169A26921F440711143DE
:101C400041614C4920686425322688423CD1FFF727
:101C500061FC00EBC00101EB001061688900B0FB82
:101C6000F1F7FFF757FC00EBC00101EB00106168D2
:101C7000B0468900B0FBF1F0B0FBF5F06FF0180151
:101C8000484307EB800106EB0110B0FBF5F000F0D4
:101C9000F006FFF73FFC00EBC00101EB00106168AC
:101CA0008900B0FBF1F0B0FBF5F006EB0016FFF792
:101CB00031FC00EBC00101EB001061688900B0FB52
:101CC000F1F7FFF727FC3BE0FFF714FC00EBC00146
:101CD00001EB001061688900B0FBF1F7FFF70AFC27
:101CE00000EBC00101EB00106168B0468900B0FB59
:101CF000F1F0B0FBF5F06FF01801484307EB8001FD
:101D000006EB0110B0FBF5F000F0F006FFF7F2FB78
:101D100000EBC00101EB001061688900B0FBF1F03D
:101D2000B0FBF5F006EB0016FFF7E4FB00EBC0019B
:101D300001EB001061688900B0FBF1F7FFF7DAFBF7
:101D400000EBC00101EB001061688900B0FBF1F00D
:101D5000B0FBF5F06FF01801484307EB800108EB8A
:101D60000110B0FBF5F0216800F00F0030448860EE
:101D7000BDE8F081003801402DE9F0419846174652
:101D80000E460446069D1DE0681C1BD02DB1FFF7D2
:101D90005BF9A0EB0800A84214D92068C16821F4BF
:101DA000D071C1602068416921F0010141612020AA
:101DB00084F8390084F83A00002084F838000320C1
:101DC000BDE8F0812068006836EA000004D00020F9
:101DD000B842D9D00020F3E70120F9E7FEE7000080
:101DE0000FB4054B10B503A9044A029800F0DAF8C5
:101DF00010BC5DF814FB0000D52600082000002070
:101E000002E008C8121F08C1002AFAD170477047C3
:101E1000002001E001C1121F002AFBD17047000021
:101E20002DE9FF5F82B00021DDE90430020DDDF80D
:101E300040B0034318D044F61050A2F2FF324243A0
:101E40001514119801281FD0A5EB0B00401C5FEA68
:101E5000000A4FF000064E4FDFF83891B04650466A
:101E600015D5CAF1000413E0119801244AA30128F2
:101E700001D16FEA0B010298119AC0E90031C0E963
:101E8000024206B0BDE8F09FCBF10000DFE7044658
:101E90000021404A491842EB0450CDE9001012E0FD
:101EA000E00707D032463B4640464946FEF76CF90C
:101EB0008046894632463B4610461946FEF764F98D
:101EC00006460F466410002CEAD1DDE90401DDE985
:101ED0000023BAF1000F06DAFEF756F942464B46E8
:101EE000FEF752F905E0FEF79AFB42464B46FEF735
:101EF00096FB04460E460022284BFEF717FC03D83B
:101F00004FF0FF30014607E00022254B20463146C6
:101F1000FEF7DEFAFEF7F2FB102409E0002C0ADBE4
:101F20000A220023FEF70FFA039B30321A55641E73
:101F300050EA0102F2D1641C039AC4F11103144463
:101F4000119A012A03D0012208430DD10AE0084367
:101F500004D000204FF0110B119072E7A3EB0B059A
:101F60006D1E0DE05B4504DD4FF0000205F101053B
:101F700004E003DA4FF00002A5F10105002AECD0DD
:101F800002981199C0E90231C0E9004579E70000E3
:101F9000000014400000F03F300000000000F0435B
:101FA0000000E03F2DE9FF4F95B09B46894606466D
:101FB00000250FE2252877D100242746F84A012181
:101FC000059400E0044316F8013F203B01FA03F0BA
:101FD0001042F7D130782A2811D06FF02F033078D3
:101FE000A0F13002092A16D8059A44F0020402EB47
:101FF000820203EB42021044761C0590EFE759F889
:10200000042B0592002A03DA504244F40054059050
:1020100044F00204761C30782E2816D116F8010FF1
:1020200044F004042A280DD06FF02F023078A0F17C
:102030003003092B09D807EB870302EB4303C718CA
:10204000761CF3E759F8047B761C30786C280FD0A7
:1020500006DC4C2817D068280DD06A2814D104E07B
:10206000742810D07A280FD10DE044F400140AE04F
:1020700044F4801401E044F440147278824202D1A6
:1020800004F58014761C761C307866280BD013DC9F
:10209000582877D009DC002875D04528F6D0462886
:1020A000F4D047281AD19DE118E0632835D0642880
:1020B00079D0652812D195E1702873D008DC6728A3
:1020C000F1D069286FD06E280DD06F2806D1B5E009
:1020D00073282CD0752875D0782874D05A46179953
:1020E00090476D1C75E1C4F30250022809D0032803
:1020F0000DD0D9F8001004280DD00D6009F10409A5
:1021000067E1D9F80010EA17C1E90052F6E7D9F8FB
:1021100000100D80F2E70D70F0E719F8041B8DF840
:10212000001000208DF80100EA46012003E059F874
:1021300004AB4FF0FF3061074FF0000102D40DE017
:1021400008F101018846B9420FDA8045F8DB1AF838
:1021500008100029F4D108E008F101018846814205
:10216000FADB1AF808100029F6D105985B46A0EBB7
:10217000080721463846179A00F094FA284400EBE5
:10218000080507E04DE029E10DE01AF8010B5A4679
:1021900017999047B8F10108F7D25B4621463846B7
:1021A000179A13E142E00A220092C4F302524FF060
:1021B000000A022A08D059F804CB032A4FEAEC712E
:1021C0000AD00DE029E02AE009F1070121F0070219
:1021D000F2E802C1914609E00FFA8CFC4FEAEC717B
:1021E000042A03D14FFA8CFC4FEAEC71002907DA7C
:1021F0000A460021DCF1000C61EB02012D2202E015
:10220000220504D52B228DF80420012203E0E207E9
:1022100001D02022F7E7904659E00A2102E010227F
:102220000DE010214FF0000A00910BE010224FF05A
:10223000000A44F004040827009203E008224FF04B
:10224000000A0092C4F30252022A05D059F804CBC6
:102250000021032A08D009E009F1070121F0070253
:10226000F2E802C1914605E01FFA8CFC042A01D174
:102270000CF0FF0C4FF00008220728D5702806D07C
:10228000009B83F0100353EA0A0305D00EE04022BE
:102290008DF80420012208E05CEA010206D0302219
:1022A0008DF804208DF8050002229046009B83F0F3
:1022B000080353EA0A030AD15CEA010201D162076A
:1022C00005D530228DF804204FF001087F1E5828D4
:1022D00004D034A003900EA802900DE036A0F9E7D8
:1022E00053466046009AFEF72EF884460398825CB7
:1022F0000298401E029002705CEA0100F0D1029840
:1023000006A9081A00F1200A600702D524F48034D7
:1023100000E00127574502DDA7EB0A0000E000209E
:1023200000EB0A01009005984144401A0590E00333
:1023300006D45B462146179A059800F0B3F9054488
:10234000002706E001A85A46C05D179990476D1C0A
:102350007F1C4745F6DBE0030CD55B462146179A08
:10236000059800F09FF9054404E030205A4617997B
:1023700090476D1C0099481E00900029F5DC08E08C
:10238000029802995A460078491C02911799904781
:102390006D1CBAF10001AAF1010AF1DC65E100004F
:1023A000092801003031323334353637383961622B
:1023B00063646566000000003031323334353637EF
:1023C00038394142434445460000000000F058F9C6
:1023D0000544761C307800287FF4ECAD19B028460F
:1023E000BDE8F08F620700D4062709F1070222F04A
:1023F000070CFCE80223E14603F000485FEA080C02
:1024000002D00FF2702C0DE05FEA045C02D50FF2EF
:10241000682C07E05FEAC47C02D00FF2602C01E078
:10242000AFF2700C4FF0FF3823F00043CDF850C0EE
:1024300065280CD006DC452809D046281DD0472841
:102440003DD13DE0662818D067287ED138E00021D4
:10245000112F01DB112000E0781CCDE9000106A955
:102460000EA8FFF7DDFCDDE90F010E9A03910021B4
:10247000009207F1010A04914DE04FF000400097EF
:10248000CDE9011006A90EA8FFF7CAFCDDE90F028D
:1024900003920E9B11990022DDF80CA00093049288
:1024A00011B9791C00EB010AB7EB0A0004D4C0F1A2
:1024B000FF3007F1010A0490AAEB0700019044E005
:1024C000012F00DA01270021112F01DD112000E08A
:1024D0003846CDE9000106A90EA8FFF7A1FCDDE909
:1024E0000F010E9A0391002104910092BA46210730
:1024F0000CD40399514500DA8A46BAF1010F05DD83
:10250000009AAAF10101515C302908D0B84202DAE0
:1025100010F1040F06DA0121CDE9011015E0AAF14E
:102520000101E9E7002805DC049901440491AAEBC4
:10253000000102E0411C514500DD8A460499401A21
:10254000401C01904FF000400290200704D40198F5
:10255000504501DBCDF8048000208DF84F00029833
:102560000DF14F07B0F1004F25D02B200E900298AF
:102570004FF0020800280CDA404202902D200E9005
:1025800007E00A210298FDF7C8FE3031029007F8F3
:10259000011DB8F10001A8F10108F2DC0298002841
:1025A000EFD1791E0E980870307800F0200040F0CE
:1025B000450007F8020D12A8C01B00F10708149887
:1025C000007800B1012000EB0A01019801EBE071F5
:1025D00005984144401A401E0590E00306D45B462E
:1025E0002146179A059800F05DF805441498007884
:1025F00018B15A46179990476D1CE00324D55B46E5
:102600002146179A059800F04DF805441CE00498FF
:10261000002807DBDDE90301884203DD0098405C08
:10262000179901E0179930205A469047049805F110
:102630000105401C04900198401E019004D12E20F9
:102640005A46179990476D1CBAF10001AAF1010A88
:10265000DDDC05E017F8010B5A46179990476D1C11
:10266000B8F10001A8F10108F4DC5B462146179A95
:102670000598ABE62D0000002B00000020000000B4
:102680002DE9F041044600251E461746880404D46F
:1026900005E039462020B0476D1C641EF9D5284658
:1026A000BDE8F0812DE9F041044600251E46904624
:1026B000C80301D5302700E02027880404D505E0B1
:1026C00041463846B0476D1C641EF9D52846BDE822
:1026D000F081000010B5044605484FF47A730146B6
:1026E000047001220348FFF75FF9204610BD000087
:1026F0001C00002054000020FEF7B4FCFFF723FA72
:10270000FFF7D4F9FFF7AEF90E480D490C2201602E
:102710004FF4E131416000218160C160C0E90412E1
:102720008161C161FFF7E3F800B1FEE70548303889
:10273000FEF7AEF803483038FEF714FBFAE7000066
:102740000044004054000020000000000000000091
:102750000102030406070809000000000102030447
:10276000802700080000002024000000001E000850
:10277000A4270008240000208C040000101E00087C
:102780000000000000000000FFFFFFFF010000004C
:10279000100000000000000000A24A040000000039
:0427A0000000000035
:0400000508000131BD
:00000001FF
